:100000000C9434000C943E000C943E000C94400080
:100010000C943E000C943E000C943E000C943E0068
:100020000C943E000C943E000C943E000C943E0058
:100030000C943E000C943E000C943E000C943E0048
:100040000C943E000C943E000C943E000C943E0038
:100050000C943E000C943E000C943E000C943E0028
:100060000C943E000C943E0011241FBECFEFD8E04C
:10007000DEBFCDBF0E9461000C9479000C9400009B
:100080001F920F920FB60F9211248F939F9393B1EB
:1000900083B190FF10C081FD09C04A9B599A9F917E
:1000A0008F910F900FBE0F901F9018958BB1857F89
:1000B0008BB95A9AF4CF4A9BF2CF8BB1897F8BB917
:1000C000EECF8EE08AB98BB1817F8BB983E088B99E
:1000D00091E09093680080936B00789486B1817072
:1000E000319903C09BB1917F9BB98111F7CF5B9A86
:0600F000F5CFF894FFCFEC
:00000001FF
