:100000000C9434000C9446000C9446000C9446006A
:100010000C9448000C9446000C9446000C94460046
:100020000C9446000C9446000C9446000C94460038
:100030000C9446000C9446000C9484000C944600EA
:100040000C9446000C9446000C9446000C94460018
:100050000C9446000C9446000C9446000C94460008
:100060000C9446000C94460011241FBECFEFD8E03C
:10007000DEBFCDBF21E0A0E0B1E001C01D92AE30F7
:10008000B207E1F70E94B3010C94C2020C94000085
:100090001F920F920FB60F9211248F939F9386B1E8
:1000A000817096B132990FC010920D0110920C011F
:1000B00010920B0110920A011092B300289810922E
:1000C0000901109208018823C1F091FF16C08091A8
:1000D000080190910901892B81F481E090E09093CF
:1000E0000D0180930C01909309018093080180EA2F
:1000F0009FE090930701809306019F918F910F904D
:100100000FBE0F901F9018951F920F920FB60F926F
:1001100011242F933F934F935F936F937F938F930C
:100120009F93AF93BF93EF93FF9380910C019091B6
:100130000D01892B89F1289A809104019091050184
:10014000019690930501809304012091060130915E
:1001500007018217930701F5289810920D0110925C
:100160000C01109205011092040181E090E090933F
:100170000B0180930A01809108019091090185305B
:10018000910509F498C008F05EC08130910509F42A
:1001900070C0039709F480C080910A0190910B010F
:1001A000892B09F43FC020E030E04FE753E4609131
:1001B00000017091010180910201909103010E9460
:1001C0002D020E94CE016093B300809104019091B2
:1001D000050101969093050180930401803A9F40A8
:1001E00009F51092B30010920501109204011092CB
:1001F0000B0110920A0181E090E090930D01809331
:100200000C0180910801909109018630910509F453
:1002100098C008F06EC08230910509F47CC0049744
:1002200009F486C0FF91EF91BF91AF919F918F919B
:100230007F916F915F914F913F912F910F900FBEE2
:100240000F901F9018958730910509F443C00997C6
:1002500009F0A2CF80E090E0A0E4BFE3809300012A
:1002600090930101A0930201B09303018AE090E012
:100270000EC08DEC9CECACECBEE38093000190933F
:100280000101A0930201B093030182E090E09093FA
:1002900009018093080180CF8DEC9CECACE4BFE3B6
:1002A0008093000190930101A0930201B093030198
:1002B00084E090E0ECCF83E393E3A3EBBEE3809391
:1002C000000190930101A0930201B093030186E025
:1002D00090E0DDCF8DEC9CECACECBDE380930001B5
:1002E00090930101A0930201B093030188E090E094
:1002F000CECF8830910571F10A9709F093CF109213
:100300000D0110920C011092B3002898109209016F
:100310001092080187CF88EB9BE0909307018093B0
:10032000060183E090E090930901809308017ACF61
:1003300080ED97E0909307018093060185E090E0BF
:10034000F2CF80E797E1909307018093060187E061
:1003500090E0E9CF88E893E190930701809306014C
:1003600089E090E0E0CF89E084B984E088B982E058
:100370008093680097E090936C0093E89093B000AE
:1003800095E09093B1001092B30084BD93E095BDC9
:1003900099EF97BD80936E007894FFCF0E94D501AE
:1003A0006894B1110C94270208950E940C0288F001
:1003B0009F5798F0B92F9927B751B0F0E1F0660F29
:1003C000771F881F991F1AF0BA95C9F714C0B1306A
:1003D00091F00E942602B1E008950C942602672F46
:1003E000782F8827B85F39F0B93FCCF38695779599
:1003F0006795B395D9F73EF4909580957095619582
:100400007F4F8F4F9F4F089557FD9058440F551FB2
:1004100059F05F3F71F04795880F97FB991F61F086
:100420009F3F79F087950895121613061406551FFD
:10043000F2CF4695F1DF08C0161617061806991F69
:10044000F1CF86957105610508940895E894BB275E
:1004500066277727CB0197F908950E9440020C94F4
:10046000B1020E94A30238F00E94AA0220F0952354
:1004700011F00C949A020C94A00211240C942702FF
:100480000E94040270F3959FC1F3950F50E0551F31
:10049000629FF001729FBB27F00DB11D639FAA27D9
:1004A000F00DB11DAA1F649F6627B00DA11D661F28
:1004B000829F2227B00DA11D621F739FB00DA11D49
:1004C000621F839FA00D611D221F749F3327A00D03
:1004D000611D231F849F600D211D822F762F6A2F9F
:1004E00011249F5750409AF0F1F088234AF0EE0F04
:1004F000FF1FBB1F661F771F881F91505040A9F731
:100500009E3F510580F00C949A020C9427025F3FA5
:10051000E4F3983ED4F3869577956795B795F7956C
:10052000E7959F5FC1F7FE2B880F911D96958795E4
:1005300097F9089597F99F6780E870E060E0089563
:100540009FEF80EC089500240A94161617061806EB
:100550000906089500240A941216130614060506C7
:100560000895092E0394000C11F4882352F0BB0F58
:1005700040F4BF2B11F460FF04C06F5F7F4F8F4FBB
:080580009F4F0895F894FFCF8E
:00000001FF
