:100000000C9434000C943E000C943E000C943E0082
:100010000C943E000C943E000C943E000C943E0068
:100020000C943E000C943E000C943E000C943E0058
:100030000C943E000C943E000C943E000C943E0048
:100040000C943E000C943E000C943E000C943E0038
:100050000C943E000C943E000C943E000C943E0028
:100060000C943E000C943E0011241FBECFEFD8E04C
:10007000DEBFCDBF0E9440000C945A000C940000DB
:1000800084E48AB98BE085B98BB18B7B8BB993B152
:10009000917023B183B1887021FF5A98911105C0E6
:1000A000882329F05A9A5E98F2CF8111F0CF5A989E
:0800B0005E9AEDCFF894FFCF3A
:00000001FF
