:100000000C9435000C945D000C945D000C945D0024
:100010000C945D000C945D000C945D000C945D00EC
:100020000C945D000C945D000C945D000C945D00DC
:100030000C945D000C945D000C945D000C945D00CC
:100040000C945D000C945D000C94AB020C94850242
:100050000C945D000C945D000C945D000C945D00AC
:100060000C945D000C945D00DD0211241FBECFEFE7
:10007000D8E0DEBFCDBF11E0A0E0B1E0E2EBFCE0F4
:1000800002C005900D92A833B107D9F721E0A8E38B
:10009000B1E001C01D92A13EB207E1F710E0C5E357
:1000A000D0E004C02197FE010E945106C433D1075D
:1000B000C9F70E940A030C9457060C940000AF92F3
:1000C000BF92CF92DF92EF92FF920F931F93CF9345
:1000D000DF936C017B018B01040F151FEB015E01A7
:1000E000AE18BF08C017D10759F06991D601ED913C
:1000F000FC910190F081E02DC6010995892B79F7DB
:10010000C501DF91CF911F910F91FF90EF90DF908C
:10011000CF90BF90AF900895FC01538D448D252F53
:1001200030E0842F90E0821B930B541710F0CF9691
:10013000089501970895FC01918D828D981761F0C3
:10014000A28DAE0FBF2FB11D5D968C91928D9F5FDA
:100150009F73928F90E008958FEF9FEF0895FC01B9
:10016000918D828D981731F0828DE80FF11D858D6C
:1001700090E008958FEF9FEF0895FC01918D228DFF
:10018000892F90E0805C9F4F821B91098F73992784
:100190000895FC01A48DA80FB92FB11DA35ABF4F1C
:1001A0002C91848D90E001968F739927848FA68976
:1001B000B7892C93A089B1898C91837080648C93CA
:1001C000938D848D981306C00288F389E02D808179
:1001D0008F7D80830895EF92FF920F931F93CF93AB
:1001E000DF93EC0181E0888F9B8D8C8D98131AC072
:1001F000E889F989808185FF15C09FB7F894EE8959
:10020000FF896083E889F9898081837080648083B5
:100210009FBF81E090E0DF91CF911F910F91FF9000
:10022000EF900895F62E0B8D10E00F5F1F4F0F73A8
:100230001127E02E8C8D8E110CC00FB607FCFACF63
:10024000E889F989808185FFF5CFCE010E94C90038
:10025000F1CFEB8DEC0FFD2FF11DE35AFF4FF08234
:100260009FB7F8940B8FEA89FB8980818062CFCF9A
:10027000CF93DF93EC01888D8823B9F0AA89BB89DD
:10028000E889F9898C9185FD03C0808186FD0DC0C8
:100290000FB607FCF7CF8C9185FFF2CF808185FFE9
:1002A000EDCFCE010E94C900E9CFDF91CF91089533
:1002B000FC0101900020E9F73197AF01481B590B71
:1002C000BC0184E491E00C945F008F929F92AF9206
:1002D000BF920F931F93CF93DF93CDB7DEB7A19754
:1002E0000FB6F894DEBF0FBECDBF19A2423008F49E
:1002F0004AE08E010F5D1F4F842E912CB12CA12C52
:10030000A50194010E942F06E62FB901CA01EA3027
:10031000F4F4E05DD801EE938D01232B242B252BE3
:1003200079F790E080E0109719F0CD010E94580114
:10033000A1960FB6F894DEBF0FBECDBFDF91CF916F
:100340001F910F91BF90AF909F908F900895E95C9F
:10035000E1CF4F925F926F927F928F929F92AF9276
:10036000BF92CF92DF92EF92FF920F931F93CF93A2
:100370006B017C01742EAC019B010E942A0688232C
:1003800099F082E191E0CF911F910F91FF90EF9052
:10039000DF90CF90BF90AF909F908F907F906F90A5
:1003A0005F904F900C94580146015701E894B7F8BC
:1003B0002FEF3FEF4FE75FE7C501B4010E942A0628
:1003C00081110DC02FEF3FEF4FE75FE7C501B4018B
:1003D0000E94600418161CF486E191E0D4CF2FEF40
:1003E0003FEF4FE75FE4C701B6010E94B80518165A
:1003F0001CF48AE191E0C7CF2FEF3FEF4FE75FECAE
:10040000C701B6010E94600487FDF3CF20E030E011
:10041000A901C701B6010E94600410E000E087FF57
:100420000AC06DE284E491E00E94EB008C01F7FACF
:10043000F094F7F8F094C0E060E070E080E09FE3B3
:100440007C1641F020E030E040E251E40E94650477
:10045000CF5FF6CFA70196010E94F4032B013C0168
:100460000E94D7044B015C014AE00E9465017C01B7
:10047000E00EF11ECC23C1F1C501B4010E940605B6
:100480009B01AC01C301B2010E94F3034B015C016B
:100490006EE284E491E00E94EB00E80EF91EC15088
:1004A00018F120E030E040E251E4C501B4010E94BF
:1004B000BD052B013C010E94D7044B01B12CA12C9E
:1004C0004AE0C501B4010E946501E80EF91EC501AC
:1004D000B4010E9406059B01AC01C301B2010E9458
:1004E000F3034B015C01DBCFC701CF911F910F914B
:1004F000FF90EF90DF90CF90BF90AF909F908F9044
:100500007F906F905F904F9008951F920F920FB65B
:100510000F9211242F933F934F935F936F937F9389
:100520008F939F93AF93BF93EF93FF9384E491E0F6
:100530000E94C900FF91EF91BF91AF919F918F9160
:100540007F916F915F914F913F912F910F900FBECF
:100550000F901F9018951F920F920FB60F921124B3
:100560002F938F939F93EF93FF93E0915401F0911A
:1005700055018081E0915A01F0915B0182FD1BC021
:10058000908180915D018F5F8F7320915E01821752
:1005900041F0E0915D01F0E0EC5BFE4F958F8093C0
:1005A0005D01FF91EF919F918F912F910F900FBE61
:1005B0000F901F9018958081F4CFE4E4F1E013824E
:1005C000128288EE93E0A0E0B0E084839583A68356
:1005D000B78384E091E09183808385EC90E09587F8
:1005E000848784EC90E09787868780EC90E0918BFD
:1005F000808B81EC90E0938B828B82EC90E0958BEA
:10060000848B86EC90E0978B868B118E128E138EE6
:10061000148E089580E480937C0087E880937A00AC
:10062000E0915401F091550182E08083E091500106
:10063000F09151011082E0915201F091530187E64F
:10064000808310925C01E0915801F091590186E09D
:100650008083E0915601F091570180818061808311
:10066000E0915601F0915701808188608083E0918C
:100670005601F0915701808180688083E091560196
:10068000F091570180818F7D80838EE1C82ED12C1F
:10069000E12CF12C2EE130E080917C0090917C00E7
:1006A000887F8160892B80937C0080917A008064B0
:1006B00080937A0080917A0084FFFCCF409178008B
:1006C0005091790060914001709141018091420107
:1006D00090914301640F751F811D911D609340012E
:1006E000709341018093420190934301215031095D
:1006F00099F6A70196010E942F062093400130939E
:1007000041014093420150934301CA01B9010E9443
:1007100006054B015C0120E030E040EA50E40E9415
:10072000BD0520E030EC4FE754E40E94650460937F
:100730003C0170933D0180933E0190933F0123E380
:1007400033E946E954E4C501B4010E94BD0520E047
:1007500030EC4FE754E40E9465042DEC3CE44AEC95
:1007600053E40E94F303609338017093390180933E
:100770003A0190933B018EE191E00E945801609113
:1007800038017091390180913A0190913B0142E02A
:100790000E94A9018CE291E00E9458018FE291E051
:1007A0000E94580160913C0170913D0180913E0191
:1007B00090913F0142E00E94A9018CE291E00E94E9
:1007C0005801109240011092410110924201109282
:1007D00043012FEF83EC99E0215080409040E1F7F6
:1007E00000C0000057CF5058BB27AA270E940B0417
:1007F0000C947E050E94700538F00E94770520F069
:1008000039F49F3F19F426F40C946D050EF4E0952D
:10081000E7FB0C946705E92F0E948F0558F3BA1780
:10082000620773078407950720F079F4A6F50C9406
:10083000B1050EF4E0950B2EBA2FA02D0B01B901D6
:1008400090010C01CA01A0011124FF27591B99F046
:10085000593F50F4503E68F11A16F040A22F232F52
:10086000342F4427585FF3CF469537952795A795A2
:10087000F0405395C9F77EF41F16BA0B620B730B49
:10088000840BBAF09150A1F0FF0FBB1F661F771FBA
:10089000881FC2F70EC0BA0F621F731F841F48F46F
:1008A000879577956795B795F7959E3F08F0B0CFF8
:1008B0009395880F08F09927EE0F979587950895DF
:1008C0000E94430508F481E008950E9479040C9485
:1008D0007E050E94770558F00E94700540F029F4CB
:1008E0005F3F29F00C94670551110C94B2050C94EC
:1008F0006D050E948F0568F39923B1F3552391F399
:10090000951B550BBB27AA2762177307840738F07E
:100910009F5F5F4F220F331F441FAA1FA9F335D0DB
:100920000E2E3AF0E0E832D091505040E695001C8F
:10093000CAF72BD0FE2F29D0660F771F881FBB1F49
:10094000261737074807AB07B0E809F0BB0B802D27
:10095000BF01FF2793585F4F3AF09E3F510578F053
:100960000C9467050C94B2055F3FE4F3983ED4F312
:10097000869577956795B795F7959F5FC9F7880F27
:10098000911D9695879597F90895E1E0660F771F79
:10099000881FBB1F621773078407BA0720F0621B0A
:1009A000730B840BBA0BEE1F88F7E09508950E9435
:1009B000970588F09F5798F0B92F9927B751B0F055
:1009C000E1F0660F771F881F991F1AF0BA95C9F7D3
:1009D00014C0B13091F00E94B105B1E008950C94BB
:1009E000B105672F782F8827B85F39F0B93FCCF36E
:1009F000869577956795B395D9F73EF49095809550
:100A0000709561957F4F8F4F9F4F0895E89409C06F
:100A100097FB3EF490958095709561957F4F8F4F31
:100A20009F4F9923A9F0F92F96E9BB279395F69547
:100A3000879577956795B795F111F8CFFAF4BB0FC5
:100A400011F460FF1BC06F5F7F4F8F4F9F4F16C029
:100A5000882311F096E911C0772321F09EE8872FB3
:100A6000762F05C0662371F096E8862F70E060E06F
:100A70002AF09A95660F771F881FDAF7880F9695E8
:100A8000879597F90895990F0008550FAA0BE0E88C
:100A9000FEEF16161706E807F907C0F01216130640
:100AA000E407F50798F0621B730B840B950B39F480
:100AB0000A2661F0232B242B252B21F408950A26E6
:100AC00009F4A140A6958FEF811D811D089597F926
:100AD0009F6780E870E060E008959FEF80EC0895E4
:100AE00000240A941616170618060906089500240D
:100AF0000A9412161306140605060895092E039487
:100B0000000C11F4882352F0BB0F40F4BF2B11F4FA
:100B100060FF04C06F5F7F4F8F4F9F4F089557FD59
:100B20009058440F551F59F05F3F71F04795880F5B
:100B300097FB991F61F09F3F79F0879508951216F2
:100B400013061406551FF2CF4695F1DF08C016169E
:100B500017061806991FF1CF86957105610508944F
:100B60000895E894BB2766277727CB0197F9089566
:100B70000E94430508F48FEF08950E94D0050C945D
:100B80007E050E94700538F00E94770520F09523BD
:100B900011F00C9467050C946D0511240C94B205AA
:100BA0000E948F0570F3959FC1F3950F50E0551F7C
:100BB000629FF001729FBB27F00DB11D639FAA27B2
:100BC000F00DB11DAA1F649F6627B00DA11D661F01
:100BD000829F2227B00DA11D621F739FB00DA11D22
:100BE000621F839FA00D611D221F749F3327A00DDC
:100BF000611D231F849F600D211D822F762F6A2F78
:100C000011249F5750409AF0F1F088234AF0EE0FDC
:100C1000FF1FBB1F661F771F881F91505040A9F709
:100C20009E3F510580F00C9467050C94B2055F3F20
:100C3000E4F3983ED4F3869577956795B795F79545
:100C4000E7959F5FC1F7FE2B880F911D96958795BD
:100C500097F908950E944305880B990B0895A1E226
:100C60001A2EAA1BBB1BFD010DC0AA1FBB1FEE1F26
:100C7000FF1FA217B307E407F50720F0A21BB30B71
:100C8000E40BF50B661F771F881F991F1A9469F7ED
:100C900060957095809590959B01AC01BD01CF0149
:100CA0000895EE0FFF1F0590F491E02D0994F8943C
:020CB000FFCF74
:100CB20000000000EB005F008C003801BD009B00CB
:100CC200AF006E616E00696E66006F7666005465F5
:100CD2006D70657261747572613A20000D0A00547C
:080CE200656E73616F3A20009A
:00000001FF
