:100000000C9434000C9446000C9446000C9446006A
:100010000C9446000C9448000C9446000C94460046
:100020000C9446000C9446000C9446000C94460038
:100030000C9446000C9446000C9446000C94460028
:100040000C9446000C9446000C9446000C94460018
:100050000C9446000C9446000C9446000C94460008
:100060000C9446000C94460011241FBECFEFD8E03C
:10007000DEBFCDBF21E0A0E0B1E001C01D92A43001
:10008000B207E1F70E94A8000C94D5010C9400007F
:100090001F920F920FB60F921124CF92DF92EF9220
:1000A000FF922F933F934F935F936F937F938F9321
:1000B0009F93AF93BF93EF93FF934C9B2BC020E094
:1000C00030E04CEC51E460910001709101018091AD
:1000D0000201909103010E94B9006B017C0120E0B4
:1000E00030E04FE753E40E94AC01181644F1C0928F
:1000F0000001D0920101E0920201F09203016091AF
:1001000000017091010180910201909103010E9410
:10011000250167BDFF91EF91BF91AF919F918F91A5
:100120007F916F915F914F913F912F91FF90EF9051
:10013000DF90CF900F900FBE0F901F9018951092E8
:100140000001109201011092020110920301D7CF19
:1001500080E48AB95E9883E884BD81E085BD17BCE0
:1001600084E08093680080E180936D007894FFCFF5
:100170005058BB27AA270E94D0000C9472010E94FD
:10018000640138F00E946B0120F039F49F3F19F4AC
:1001900026F40C9461010EF4E095E7FB0C945B01EE
:1001A000E92F0E94830158F3BA1762077307840787
:1001B000950720F079F4A6F50C94A5010EF4E095CE
:1001C0000B2EBA2FA02D0B01B90190010C01CA0111
:1001D000A0011124FF27591B99F0593F50F4503EBC
:1001E00068F11A16F040A22F232F342F4427585FAE
:1001F000F3CF469537952795A795F0405395C9F7C6
:100200007EF41F16BA0B620B730B840BBAF091507D
:10021000A1F0FF0FBB1F661F771F881FC2F70EC01C
:10022000BA0F621F731F841F48F4879577956795EF
:10023000B795F7959E3F08F0B0CF9395880F08F0DB
:100240009927EE0F9795879508950E942C01689441
:10025000B1110C94A60108950E948B0188F09F575C
:1002600098F0B92F9927B751B0F0E1F0660F771FDA
:10027000881F991F1AF0BA95C9F714C0B13091F0D0
:100280000E94A501B1E008950C94A501672F782F75
:100290008827B85F39F0B93FCCF386957795679595
:1002A000B395D9F73EF490958095709561957F4F01
:1002B0008F4F9F4F089597F99F6780E870E060E047
:1002C00008959FEF80EC089500240A9416161706EF
:1002D00018060906089500240A9412161306140637
:1002E00005060895092E0394000C11F4882352F09A
:1002F000BB0F40F4BF2B11F460FF04C06F5F7F4F52
:100300008F4F9F4F089557FD9058440F551F59F038
:100310005F3F71F04795880F97FB991F61F09F3FF2
:1003200079F087950895121613061406551FF2CF1B
:100330004695F1DF08C0161617061806991FF1CF6B
:1003400086957105610508940895E894BB27662792
:100350007727CB0197F908950E94B10108F48FEF38
:100360000895990F0008550FAA0BE0E8FEEF161646
:100370001706E807F907C0F012161306E407F50799
:1003800098F0621B730B840B950B39F40A2661F00D
:10039000232B242B252B21F408950A2609F4A140B0
:0E03A000A6958FEF811D811D0895F894FFCF63
:00000001FF
