:100000000C9434000C9446000C9446000C945F0051
:100010000C9448000C9446000C9446000C94460046
:100020000C9446000C9446000C9446000C94460038
:100030000C9446000C9446000C9484000C944600EA
:100040000C9446000C9446000C9446000C94460018
:100050000C9446000C9446000C9446000C94460008
:100060000C9446000C94460011241FBECFEFD8E03C
:10007000DEBFCDBF21E0A0E0B1E001C01D92A630FF
:10008000B207E1F70E94D0000C94E6000C94000047
:100090001F920F920FB60F9211248F939F9386B1E8
:1000A0008170319903C09BB19F739BB981115F9A95
:1000B0009F918F910F900FBE0F901F9018951F92D8
:1000C0000F920FB60F9211242F933F938F939F930C
:1000D00093B183B1827090FF06C021E030E030938D
:1000E000050120930401882331F081E090E0909392
:1000F0000301809302019F918F913F912F910F9067
:100100000FBE0F901F9018951F920F920FB60F926F
:1001100011242F938F939F93809104019091050157
:10012000892B71F05F9880910001909101010196F7
:100130008B3D2AE1920701F1909301018093000128
:100140008091020190910301892B71F05E9880915A
:1001500000019091010101968F3924E29207B1F0DC
:1001600090930101809300019F918F912F910F90A7
:100170000FBE0F901F901895109201011092000170
:100180005E9A1092050110920401DACF10920101DB
:10019000109200015F9A1092030110920201E4CFC5
:1001A00080EC8AB98BB18F738BB983E08093680040
:1001B00080936B0080936C0092E098B994BD85BDEC
:1001C00087EC87BD90936E007894FFCFF894FFCFB3
:00000001FF
