:100000000C9434000C943E000C943E000C943E0082
:100010000C943E000C943E000C943E000C943E0068
:100020000C943E000C943E000C943E000C943E0058
:100030000C943E000C943E000C943E000C943E0048
:100040000C943E000C943E000C943E000C943E0038
:100050000C943E000C943E000C943E000C943E0028
:100060000C943E000C943E0011241FBECFEFD8E04C
:10007000DEBFCDBF0E9440000C949E000C94000097
:100080009FE09AB98BB1807F8BB995B98AE090E0F7
:1000900002C082E390E0319930C08E319105A9F120
:1000A00064F48A30910549F184319105A1F7589A99
:1000B000189928C08EE190E0EECF88329105A9F121
:1000C0008233910541F7599886E090E05B9A2FEFD3
:1000D00034E34CE0215030404040E1F700C00000E4
:1000E0005B982FEF34E34CE0215030404040E1F783
:1000F00000C00000019751F715C08BB1807F8BB90C
:10010000309BC4CF84E190E0C6CF58982FEF3BE7F7
:1001100042E9215030404040E1F700C000005A9AC7
:100120001999C8CF88E290E0B6CF5A98599A93B1FE
:1001300083B192FFAECF83FDF5CFA8CFF894FFCF68
:00000001FF
