:100000000C9435000C945D000C945D000C945D0024
:100010000C945D000C945D000C945D000C945D00EC
:100020000C945D000C945D000C945D000C945D00DC
:100030000C945D000C945D000C945D000C945D00CC
:100040000C945D000C945D000C94CF010C94A901FC
:100050000C945D000C945D000C945D000C945D00AC
:100060000C945D000C945D00010211241FBECFEFC3
:10007000D8E0DEBFCDBF11E0A0E0B1E0E0E1FBE001
:1000800002C005900D92A033B107D9F721E0A0E39B
:10009000B1E001C01D92A33DB207E1F710E0C5E356
:1000A000D0E004C02197FE010E948005C433D1072F
:1000B000C9F70E942E020C9486050C940000AF92A2
:1000C000BF92CF92DF92EF92FF920F931F93CF9345
:1000D000DF936C017B018B01040F151FEB015E01A7
:1000E000AE18BF08C017D10759F06991D601ED913C
:1000F000FC910190F081E02DC6010995892B79F7DB
:10010000C501DF91CF911F910F91FF90EF90DF908C
:10011000CF90BF90AF900895FC01538D448D252F53
:1001200030E0842F90E0821B930B541710F0CF9691
:10013000089501970895FC01918D828D981761F0C3
:10014000A28DAE0FBF2FB11D5D968C91928D9F5FDA
:100150009F73928F90E008958FEF9FEF0895FC01B9
:10016000918D828D981731F0828DE80FF11D858D6C
:1001700090E008958FEF9FEF0895FC01918D228DFF
:10018000892F90E0805C9F4F821B91098F73992784
:100190000895FC01A48DA80FB92FB11DA35ABF4F1C
:1001A0002C91848D90E001968F739927848FA68976
:1001B000B7892C93A089B1898C91837080648C93CA
:1001C000938D848D981306C00288F389E02D808179
:1001D0008F7D80830895EF92FF920F931F93CF93AB
:1001E000DF93EC0181E0888F9B8D8C8D98131AC072
:1001F000E889F989808185FF15C09FB7F894EE8959
:10020000FF896083E889F9898081837080648083B5
:100210009FBF81E090E0DF91CF911F910F91FF9000
:10022000EF900895F62E0B8D10E00F5F1F4F0F73A8
:100230001127E02E8C8D8E110CC00FB607FCFACF63
:10024000E889F989808185FFF5CFCE010E94C90038
:10025000F1CFEB8DEC0FFD2FF11DE35AFF4FF08234
:100260009FB7F8940B8FEA89FB8980818062CFCF9A
:10027000CF93DF93EC01888D8823B9F0AA89BB89DD
:10028000E889F9898C9185FD03C0808186FD0DC0C8
:100290000FB607FCF7CF8C9185FFF2CF808185FFE9
:1002A000EDCFCE010E94C900E9CFDF91CF91089533
:1002B000FC0101900020E9F73197AF01481B590B71
:1002C000BC0186E391E00C945F008F929F92AF9205
:1002D000BF920F931F93CF93DF93CDB7DEB7A19754
:1002E0000FB6F894DEBF0FBECDBF19A2423008F49E
:1002F0004AE08E010F5D1F4F842E912CB12CA12C52
:10030000A50194010E945E05E62FB901CA01EA30F9
:10031000F4F4E05DD801EE938D01232B242B252BE3
:1003200079F790E080E0109719F0CD010E94580114
:10033000A1960FB6F894DEBF0FBECDBFDF91CF916F
:100340001F910F91BF90AF909F908F900895E95C9F
:10035000E1CF1F920F920FB60F9211242F933F936C
:100360004F935F936F937F938F939F93AF93BF93BD
:10037000EF93FF9386E391E00E94C900FF91EF9114
:10038000BF91AF919F918F917F916F915F914F91AD
:100390003F912F910F900FBE0F901F9018951F92B5
:1003A0000F920FB60F9211242F938F939F93EF9379
:1003B000FF93E0914601F09147018081E0914C016B
:1003C000F0914D0182FD1BC0908180914F018F5FA4
:1003D0008F7320915001821741F0E0914F01F0E0BE
:1003E000EA5CFE4F958F80934F01FF91EF919F91B3
:1003F0008F912F910F900FBE0F901F9018958081B5
:10040000F4CFE6E3F1E01382128288EE93E0A0E0FD
:10041000B0E084839583A683B78384E091E09183E1
:10042000808385EC90E09587848784EC90E09787C3
:10043000868780EC90E0918B808B81EC90E0938BB1
:10044000828B82EC90E0958B848B86EC90E0978B8E
:10045000868B118E128E138E148E089580E48093F5
:100460007C0087E880937A00E0914601F091470193
:1004700082E08083E0914201F09143011082E0919B
:100480004401F091450187E6808310924E01E0918E
:100490004A01F0914B0186E08083E0914801F091A0
:1004A0004901808180618083E0914801F091490198
:1004B000808188608083E0914801F09149018081CA
:1004C00080688083E0914801F091490180818F7DAF
:1004D0008083CEE1D0E02EE130E080917C009091ED
:1004E0007C00887F8460892B80937C0080917A00D7
:1004F000806480937A0080917A0084FFFCCF8091A1
:100500007800909179004091340150913501840F29
:10051000951F909335018093340121503109E9F6FC
:10052000BE010E944A05709335016093340182E157
:1005300091E00E945801609134017091350190E082
:1005400080E04AE00E94650188E191E00E94580144
:10055000609134017091350190E080E00E942104A7
:1005600020E030E040EA50E40E94D80420E030E08F
:1005700040E85AE30E94D80460933001709331013F
:1005800080933201909333018BE191E00E945801F6
:10059000C0903001D0903101E0903201F0903301F1
:1005A000A7019601C701B6010E9445058823B1F055
:1005B00084E291E00E94580188E191E00E94580194
:1005C00010923501109234012FEF83EC99E0215005
:1005D00080409040E1F700C000007DCF4601570108
:1005E000E894B7F82FEF3FEF4FE75FE7C501B4019D
:1005F0000E94450581110DC02FEF3FEF4FE75FE7E8
:10060000C501B4010E94ED0318161CF488E291E0C4
:10061000D1CF2FEF3FEF4FE75FE4C701B6010E9454
:10062000D30418161CF48CE291E0C4CF2FEF3FEFF7
:100630004FE75FECC701B6010E94ED0387FDF3CFE2
:1006400020E030E0A901C701B6010E94ED0387FF59
:1006500009C06DE286E391E00E94EB00F7FAF094A6
:10066000F7F8F0942AE037ED43EA5BE3C701B601FF
:100670000E9481034B015C010E94F2036B017C012B
:100680000E9421049B01AC01C501B4010E948003BA
:100690004B015C014AE0C701B6010E9465016EE2B0
:1006A00086E391E00E94EB0020E030E040E251E47C
:1006B000C501B4010E94D8044B015C010E94F20301
:1006C0006B01F12CE12C4AE0C701B6010E946501E3
:1006D000C701B6010E9421049B01AC01C501B40110
:1006E0000E94800320E030E040E251E40E94D80400
:1006F0000E94F20390E080E04AE00E9465015CCF36
:100700005058BB27AA270E9498030C9499040E9472
:100710008B0438F00E94920420F039F49F3F19F4C2
:1007200026F40C9488040EF4E095E7FB0C94820404
:10073000E92F0E94AA0458F3BA17620773078407C7
:10074000950720F079F4A6F50C94CC040EF4E0950E
:100750000B2EBA2FA02D0B01B90190010C01CA017B
:10076000A0011124FF27591B99F0593F50F4503E26
:1007700068F11A16F040A22F232F342F4427585F18
:10078000F3CF469537952795A795F0405395C9F730
:100790007EF41F16BA0B620B730B840BBAF09150E8
:1007A000A1F0FF0FBB1F661F771F881FC2F70EC087
:1007B000BA0F621F731F841F48F48795779567955A
:1007C000B795F7959E3F08F0B0CF9395880F08F046
:1007D0009927EE0F9795879508950E945E0408F477
:1007E00081E008950E94B20488F09F5798F0B92FD5
:1007F0009927B751B0F0E1F0660F771F881F991F56
:100800001AF0BA95C9F714C0B13091F00E94CC0427
:10081000B1E008950C94CC04672F782F8827B85F37
:1008200039F0B93FCCF3869577956795B395D9F7AD
:100830003EF490958095709561957F4F8F4F9F4FB7
:100840000895E89409C097FB3EF4909580957095C3
:1008500061957F4F8F4F9F4F9923A9F0F92F96E90C
:10086000BB279395F695879577956795B795F11181
:10087000F8CFFAF4BB0F11F460FF1BC06F5F7F4F1E
:100880008F4F9F4F16C0882311F096E911C0772330
:1008900021F09EE8872F762F05C0662371F096E839
:1008A000862F70E060E02AF09A95660F771F881F08
:1008B000DAF7880F9695879597F90895990F0008AC
:1008C000550FAA0BE0E8FEEF16161706E807F90722
:1008D000C0F012161306E407F50798F0621B730BBD
:1008E000840B950B39F40A2661F0232B242B252B3E
:1008F00021F408950A2609F4A140A6958FEF811DE1
:10090000811D089597F99F6780E870E060E0089581
:100910009FEF80EC089500240A9416161706180617
:100920000906089500240A941216130614060506F3
:100930000895092E0394000C11F4882352F0BB0F84
:1009400040F4BF2B11F460FF04C06F5F7F4F8F4FE7
:100950009F4F089557FD9058440F551F59F05F3F22
:1009600071F04795880F97FB991F61F09F3F79F0D1
:1009700087950895121613061406551FF2CF469553
:10098000F1DF08C0161617061806991FF1CF8695D5
:100990007105610508940895E894BB2766277727B9
:1009A000CB0197F908950E945E0408F48FEF089533
:1009B0000E94EB040C9499040E948B0438F00E946E
:1009C000920420F0952311F00C9482040C94880476
:1009D00011240C94CD040E94AA0470F3959FC1F3D6
:1009E000950F50E0551F629FF001729FBB27F00DDD
:1009F000B11D639FAA27F00DB11DAA1F649F662732
:100A0000B00DA11D661F829F2227B00DA11D621F80
:100A1000739FB00DA11D621F839FA00D611D221F3A
:100A2000749F3327A00D611D231F849F600D211D1E
:100A3000822F762F6A2F11249F5750409AF0F1F0A1
:100A400088234AF0EE0FFF1FBB1F661F771F881F0A
:100A500091505040A9F79E3F510580F00C948204BC
:100A60000C94CD045F3FE4F3983ED4F386957795DC
:100A70006795B795F795E7959F5FC1F7FE2B880FB0
:100A8000911D9695879597F908950E945E04880BAD
:100A9000990B0895AA1BBB1B51E107C0AA1FBB1FDE
:100AA000A617B70710F0A61BB70B881F991F5A95FA
:100AB000A9F780959095BC01CD010895A1E21A2E69
:100AC000AA1BBB1BFD010DC0AA1FBB1FEE1FFF1FF2
:100AD000A217B307E407F50720F0A21BB30BE40B42
:100AE000F50B661F771F881F991F1A9469F7609589
:100AF0007095809590959B01AC01BD01CF01089543
:100B0000EE0FFF1F0590F491E02D0994F894FFCFAC
:100B100000000000EB005F008C003801BD009B006E
:100B2000AF004144433A20000D0A0054656E7361E2
:100B30006F3A20006E616E00696E66006F76660027
:00000001FF
