:100000000C9434000C9440000C943E000C94970027
:100010000C947A000C945D000C943E000C943E000D
:100020000C943E000C943E000C943E000C943E0058
:100030000C943E000C943E000C943E000C943E0048
:100040000C943E000C943E000C943E000C943E0038
:100050000C943E000C943E000C943E000C943E0028
:100060000C943E000C943E0011241FBECFEFD8E04C
:10007000DEBFCDBF0E94B4000C94CD000C940000F4
:100080001F920F920FB60F9211242F938F939F936D
:100090004A990BC02C9A2FEF8BE792E921508040B0
:1000A0009040E1F700C000002C989F918F912F9114
:1000B0000F900FBE0F901F9018951F920F920FB6C2
:1000C0000F9211242F938F939F934E990BC02C9ACC
:1000D0002FEF8BE792E9215080409040E1F700C07C
:1000E00000002C989F918F912F910F900FBE0F9031
:1000F0001F9018951F920F920FB60F9211242F93F5
:100100008F939F9334990BC02C9A2FEF8BE792E932
:10011000215080409040E1F700C000002C989F9152
:100120008F912F910F900FBE0F901F9018951F92D7
:100130000F920FB60F9211242F938F939F931A99BA
:100140000BC02C9A2FEF8BE792E921508040904012
:10015000E1F700C000002C989F918F912F910F9094
:100160000FBE0F901F901895249A94E095B980E1E6
:1001700088B924E42BB92C9827E02093680022E06A
:100180002093690090936B0080936C0080E48093CF
:0E0190006D0081E08DBB7894FFCFF894FFCF17
:00000001FF
