:100000000C9434000C943E000C945B000C943E0065
:100010000C943E000C943E000C943E000C943E0068
:100020000C943E000C943E000C943E000C943E0058
:100030000C943E000C943E000C943E000C943E0048
:100040000C943E000C943E000C943E000C943E0038
:100050000C943E000C943E000C943E000C943E0028
:100060000C943E000C943E0011241FBECFEFD8E04C
:10007000DEBFCDBF0E946C000C9499000C94000070
:1000800059985D9A85E090E05C9A2FEF31EE44E05C
:10009000215030404040E1F700C000005C982FEF55
:1000A00031EE44E0215030404040E1F700C0000014
:1000B000019751F708951F920F920FB60F921124D6
:1000C0008F934B9903C08BB18D7C8BB98F910F901F
:1000D0000FBE0F901F9018958AB182638AB985B1BF
:1000E000816385B95B9A88E08093690082E08DBB6B
:1000F0008BB18D7C8BB97894189904C08BB18F7CAF
:100100008BB9599A93B183B1807294FF0DC0882343
:1001100041F083B199B1892B82FFEECF0E9440005C
:10012000EBCF4A9BE9CFFACF882331F34A99E4CF4A
:06013000F5CFF894FFCFAB
:00000001FF
