:100000000C9434000C9446000C9446000C94480068
:100010000C9446000C9446000C9446000C94460048
:100020000C9446000C9446000C9446000C94460038
:100030000C9446000C9446000C946F000C944600FF
:100040000C9446000C9446000C9446000C94460018
:100050000C9446000C9446000C9446000C94460008
:100060000C9446000C94460011241FBECFEFD8E03C
:10007000DEBFCDBF21E0A0E0B1E001C01D92A630FF
:10008000B207E1F70E94AC000C94BF000C94000092
:100090001F920F920FB60F9211248F939F9383B1EB
:1000A00082701A9B5998882369F081E090E09093C0
:1000B0000501809304019F918F910F900FBE0F90C7
:1000C0001F901895109205011092040110920001E2
:1000D000109201011092020110920301ECCF1F92C5
:1000E0000F920FB60F9211242F938F939F93AF937C
:1000F000BF938091040190910501892BC9F08091F3
:10010000000190910101A0910201B09103010196BB
:10011000A11DB11D803325E79207A105B10591F01E
:100120008093000190930101A0930201B093030119
:10013000BF91AF919F918F912F910F900FBE0F9014
:100140001F90189510920001109201011092020167
:1001500010920301599AECCF84E085B982E08AB904
:10016000599891E09093680096E090936B0084BD5D
:1001700085BD97EC97BD80936E007894FFCFF8947F
:02018000FFCFAF
:00000001FF
